:020000040000FA
:020000001B28BB
:040002000034003492
:080008009300030E94000B109D
:1000100006080F38013E031916288B11061E151409
:10002000861E9514061F9515861F1515140E830040
:10003000930E130E0900831600308100C72383122C
:10004000CC23950188308B048C2B630000001508AD
:080050000F3903192528BC2A11
:080058000E08343E9600170D5E
:10006000003E8A00160882004134633474346934D7
:100070006F346E34203443346F346D3470346C34E8
:10008000653474346534213400340E084D3E9600D6
:10009000170D003E8A0016088200203420344D34AB
:1000A0006934633472346F344D3465346E3475346E
:1000B0004C346934623400340E08643E9600170DE7
:1000C000003E8A00160882002034203476346534DD
:1000D0007234203431342E34303420346234653478
:1000E0007434613400340C087B3E9600170D003EDA
:1000F0008A001608820003340334033403340334C3
:100100000C08883E9600170D003E8A0016088200F3
:10011000152926293729482959290C08953E960082
:10012000170D003E8A00160882009A28A528B028DC
:10013000BB28C6280D08A23E9600170D003E8A0077
:10014000160882006A297E2992290D08AD3E960084
:10015000170D003E8A0016088200A629BA29CE296A
:100160000D08B83E9600170D003E8A001608820062
:10017000E229F6290A2A0D08C33E9600170D003E13
:100180008A00160882001E2A322A462A0D08CE3E10
:100190009600170D003E8A00160882005A2A6E2A21
:1001A000822A0C08D93E9600170D003E8A001608D8
:1001B0008200DE28E928F428FF280A290D08E63EF7
:1001C0009600170D003E8A0016088200962A972A8C
:1001D000982A0D08F13E9600170D003E8A00160879
:1001E0008200992A9A2A9B2A0D08FC3E9600170D38
:1001F000003E8A00160882009C2A9D2A9E2A0D082D
:10020000073E9600170D013E8A00160882009F2ABD
:10021000A02AA12A0D08123E9600170D013E8A0061
:1002200016088200A22AA32AA42A0E081D3E9600C0
:10023000170D013E8A001608820031342E344D34E9
:1002400065346E3475345F34313400340E082E3E1C
:100250009600170D013E8A001608820032342E34B3
:100260004D3465346E3475345F34323400340E08E6
:100270003F3E9600170D013E8A0016088200333477
:100280002E344D3465346E3475345F343334003479
:100290000E08503E9600170D013E8A001608820097
:1002A00034342E344D3465346E3475345F34343424
:1002B00000340E08613E9600170D013E8A001608B4
:1002C000820035342E344D3465346E3475345F34E9
:1002D000353400340E08723E9600170D013E8A0038
:1002E0001608820031342E3431342E3453347534B0
:1002F00062344D3465346E34753400340E08863EF5
:100300009600170D013E8A001608820031342E3403
:1003100032342E345334753462344D3465346E3493
:10032000753400340E089A3E9600170D013E8A007F
:100330001608820031342E3433342E34533475345D
:1003400062344D3465346E34753400340E08AE3E7C
:100350009600170D013E8A001608820032342E34B2
:1003600031342E345334753462344D3465346E3444
:10037000753400340E08C23E9600170D013E8A0007
:100380001608820032342E3432342E34533475340D
:1003900062344D3465346E34753400340E08D63E04
:1003A0009600170D013E8A001608820032342E3462
:1003B00033342E345334753462344D3465346E34F2
:1003C000753400340E08EA3E9600170D013E8A008F
:1003D0001608820033342E3431342E3453347534BD
:1003E00062344D3465346E34753400340E08FE3E8C
:1003F0009600170D013E8A001608820033342E3411
:1004000032342E345334753462344D3465346E34A2
:10041000753400340E08123E9600170D023E8A0015
:100420001608820033342E3433342E34533475346A
:1004300062344D3465346E34753400340E08263E13
:100440009600170D023E8A001608820034342E34BE
:1004500031342E345334753462344D3465346E3453
:10046000753400340E083A3E9600170D023E8A009D
:100470001608820034342E3432342E34533475341A
:1004800062344D3465346E34753400340E084E3E9B
:100490009600170D023E8A001608820034342E346E
:1004A00033342E345334753462344D3465346E3401
:1004B000753400340E08623E9600170D023E8A0025
:1004C0001608820035342E3431342E3453347534CA
:1004D00062344D3465346E34753400340E08763E23
:1004E0009600170D023E8A001608820035342E341D
:1004F00032342E345334753462344D3465346E34B2
:10050000753400340E088A3E9600170D023E8A00AC
:100510001608820035342E3433342E345334753477
:1005200062344D3465346E34753400347F2B7F2B48
:100530007F2B7F2B7F2B7F2B7F2B7F2B7F2B7F2B6B
:100540007F2B7F2B7F2B7F2B7F2B0130BD23EC2339
:100550000800C030BD2308008E018020FF39031938
:100560000800B5238E0AAD2A8E018D20FF390319AC
:100570000800B5238E0AB52A8C010C08031DC42A75
:10058000F03095051514CA2A043C031DCA2AF03020
:1005900095059514A522151CE02AAC228F30BD23A9
:1005A0003C30B523A9228C0A0C08053C0319DB2A30
:1005B000AC228C03F22A8C01AC2204308C00F22A8B
:1005C0008C038C1BE82AAC22A9228C0A0C08ED2A89
:1005D00004308C00AC22A9228C01AC22CF30BD2388
:1005E0003C30B523A023F03095050B108B1514304B
:1005F0008F009001910115180A2B9518102B951951
:100600001B2B1519162B900BFB2A910BFB2A8F0B1A
:10061000FB2A8C2B8C038C1FBD2A04308C00BD2A36
:100620008C0A0C08053C03198C01BD2AF030950595
:100630000B108B158C2B8D010D08031D232BF03017
:10064000950515142C2B7320900010030D02031D2B
:100650002C2BF03095059514A522151C432BB422A4
:100660008F30BD233C30B523A9228D0A73200D02A3
:1006700003193D2BB4228D03562B8D01B422732018
:100680008D008D03562B8D038D1B4B2BB422A9227D
:100690008D0A0D08512B73208D008D03B422A922E1
:1006A0008D01B422CF30BD233C30B523A023F030E0
:1006B00095050B108B1514308F00900191011518C2
:1006C0006E2B9518752B95197D2B15197B2B900B7F
:1006D0005F2B910B5F2B8F0B5F2BBD2A8D038D1F23
:1006E0001C2B73208D008D031C2B8D0A73200D0293
:1006F00003198D011C2B8D01BD2AA522D1288E0145
:100700002C20FF390319872BB5238E0A802B9201E9
:10071000A023920B882B1C2BA5228E014520FF398C
:100720000319952BB5238E0A8E2BC030BD238E0165
:100730005C20FF3903199F2BB5238E0A982B25289F
:1007400003309100900106080F38013E031DA32BD2
:0A075000900BA82B910BA32B0800BF
:06075A008514000085106B
:100760001E309800980BB22B08009A001A0E8600D3
:10077000AD231A088600AD23080085119A001A0ED1
:100780008600AD231A088600AD2385150800F030D9
:100790008605F5308505080085018601EC23851165
:1007A00003308604AD23EC2303308604AD230330ED
:1007B0008604AD2302308600AD2302308600AD23CF
:1007C00008308600AD230C30B5230630B523013048
:1007D000B523EC2385150800053099009801980B86
:0807E000EF2B990BEF2B080031
:02400E00F13F80
:00000001FF
