:020000040000FA
:020000000C28CA
:040002000034003492
:080008009300030E9400140E96
:100010008300930E130E0900831600308100A8237D
:100020008312AD2395016B2B06080F38013E03198F
:040030001428972ACF
:0C0034000C08223E9600170D003E8A00CA
:1000400016088200AF28C028D128E228F3280C081F
:100050002F3E9600170D003E8A00160882003428B5
:100060003F284A28552860280D083C3E9600170D69
:10007000003E8A001608820058296B297D290D0848
:10008000473E9600170D003E8A00160882008F2911
:10009000A229B4290D08523E9600170D003E8A0091
:1000A00016088200C629D929EE290D085D3E960062
:1000B000170D003E8A0016088200FE29112A262A02
:1000C0000D08683E9600170D003E8A001608820053
:1000D000362A492A5E2A0C08733E9600170D003E08
:1000E0008A0016088200782883288E289928A42858
:1000F0000D08803E9600170D003E8A00160882000B
:10010000702A712A722A0D088B3E9600170D003E48
:100110008A0016088200732A742A752A0D08963EF2
:100120009600170D003E8A0016088200762A772A6C
:10013000782A0D08A13E9600170D003E8A00160889
:100140008200792A7A2A7B2A0D08AC3E9600170D88
:10015000003E8A00160882007C2A7D2A7E2A0E082C
:10016000B73E9600170D003E8A0016088200313413
:100170002E344D3465346E3475345F34313400348C
:100180000E08C83E9600170D003E8A001608820031
:1001900032342E344D3465346E3475345F34323439
:1001A00000340E08D93E9600170D003E8A0016084E
:1001B000820033342E344D3465346E3475345F34FC
:1001C000333400340E08EA3E9600170D003E8A00D4
:1001D0001608820034342E344D3465346E34753450
:1001E0005F34343400340E08FB3E9600170D003E99
:1001F0008A001608820035342E344D3465346E344E
:1002000075345F34353400340C080C3E9600170DFD
:10021000013E8A0016088200033403340334033499
:1002200003340E08193E9600170D013E8A00160889
:100230008200203420344D346934633472346F3496
:100240004D3465346E3475344C3469346234003462
:100250000E08303E9600170D013E8A0016088200F7
:1002600020342034763465347234203431342E34E2
:1002700030342034623465347434613400340E0810
:10028000473E9600170D013E8A0016088200413451
:100290006334743469346F346E34203443346F34CF
:1002A0006D3470346C346534743465342134003406
:1002B0000E08603E9600170D013E8A001608820067
:1002C00031342E3431342E34473461347234613455
:1002D0006734653400340E08733E9600170D013EF6
:1002E0008A001608820031342E3432342E344434DD
:1002F0006F346F347234733400340E08853E9600C8
:10030000170D013E8A001608820031342E34333432
:100310002E3448346F3475347334653400340E0829
:10032000973E9600170D013E8A001608820032346F
:100330002E3431342E3447346134723461346734AE
:10034000653400340E08AA3E9600170D013E8A005F
:100350001608820032342E3432342E3444346F3452
:100360006F347234733400340E08BC3E9600170D9F
:10037000013E8A001608820032342E3433342E3483
:1003800048346F3475347334653400340E08CE3E0F
:100390009600170D013E8A001608820033342E3471
:1003A00031342E34523465347634693465347734DC
:1003B00000340E08E13E9600170D013E8A00160833
:1003C000820033342E3432342E345334683475344E
:1003D000743420344F346634663400340E08F63EEC
:1003E0009600170D013E8A001608820033342E3421
:1003F00033342E3446344134513400340E08063E32
:100400009600170D023E8A001608820034342E34FE
:1004100031342E345234653476346934653477346B
:1004200000340E08193E9600170D023E8A00160889
:10043000820034342E3432342E34533468347534DC
:10044000743420344F346634663400340E082E3E43
:100450009600170D023E8A001608820034342E34AE
:1004600033342E3446344134513400340E083E3E89
:100470009600170D023E8A001608820035342E348D
:1004800031342E3443346F346E3466346934673417
:1004900000340E08513E9600170D023E8A001608E1
:1004A000820035342E3432342E345334653474346F
:1004B000743469346E346734733400340E08663E25
:1004C0009600170D023E8A001608820035342E343D
:1004D00033342E34413462346F3475347434003420
:1004E0005E2B5E2B5E2B5E2B5E2B5E2B5E2B5E2BC4
:1004F0005E2B5E2B5E2B5E2B5E2B5E2B5E2B812399
:1005000001309E23CD230800C0309E2308008E01B9
:100510001A20FF390319080096238E0A882A8E01B3
:100520002720FF390319080096238E0A902A8C0190
:100530000C08031D9F2AF03095051514A52A043CCC
:10054000031DA52AF030950595147F22151CBB2AA2
:1005500087228F309E233C30962384228C0A0C08FD
:10056000053C0319B62A87228C03CD2A8C018722E9
:1005700004308C00CD2A8C038C1BC32A8722842252
:100580008C0A0C08C82A04308C00872284228C0133
:100590008722CF309E233C30962314308F00900169
:1005A0009101061EE02A861EEA2A061FF62A861FE9
:1005B000F42A900BD12A910BD12A8F0BD12A132820
:1005C0008123F030950515148C038C1F982A043074
:1005D0008C00982A8123F030950595148C0A0C081C
:1005E000053C03198C01982A812313288D010D08DD
:1005F000031DFE2AF03095051514072B04219000E9
:1006000010030D02031D072BF030950595147F2272
:10061000151C1E2B8F228F309E233C309623842264
:100620008D0A04210D020319182B8F228D03312B03
:100630008D018F2204218D008D03312B8D038D1BA5
:10064000262B8F2284228D0A0D082C2B04218D004D
:100650008D038F2284228D018F22CF309E233C3048
:10066000962314308F0090019101061E442B861EA4
:100670004F2B061F5C2B861F592B900B352B910B94
:10068000352B8F0B352B982A8123F03095051514C7
:100690008D038D1FF72A04218D008D03F72A8123F6
:1006A000F030950595148D0A04210D0203198D0172
:1006B000F72A81238D01982A7F226B288E013F2102
:1006C000FF390319662B96238E0A5F2B9201812333
:1006D000920B672BF72A01309E23CD238E01112127
:1006E000FF390319762B96238E0A6F2BC0309E2379
:1006F0008E012821FF390319802B96238E0A792B2E
:10070000142802309100900106080F38013E031DA5
:0C071000842B900B892B910B842B08008C
:04071C008514000040
:1007200085101E309800980B932B08009A001A0E23
:1007300086008E231A0886008E23080085119A00F1
:100740001A0E86008E231A0886008E23851508004F
:10075000F0308605F5308505080085018601CD233A
:100760008511033086048E23CD23033086048E2327
:10077000033086048E23023086008E2302308600EA
:100780008E23083086008E230C3096230630962365
:1007900001309623CD238515080005309900980176
:0A07A000980BD02B990BD02B08000A
:02400E00F13F80
:00000001FF
