:020000040000FA
:020000001B28BB
:040002000034003492
:080008009400030E95000B109B
:1000100006080F38013E031916288B11061E161408
:10002000861E9614061F1615861F9615150E83003C
:10003000940E140E0900831600308100C62383122B
:10004000CB23960188308B048B2B630000001608AD
:080050000F3903192528B02A1D
:080058000F08343E9700180D5B
:10006000003E8A00170882004134633474346934D6
:100070006F346E34203443346F346D3470346C34E8
:10008000653474346534213400340F084D3E9700D4
:10009000180D003E8A0017088200203420344D34A9
:1000A0006934633472346F344D3465346E3475346E
:1000B0004C346934623400340F08643E9700180DE4
:1000C000003E8A00170882002034203476346534DC
:1000D0007234203431342E34303420346234653478
:1000E0007434613400340C087B3E9700180D003ED8
:1000F0008A001708820000340134023403340434C7
:1001000001340C08893E9700180D003E8A0017083C
:1001100082002129322943295429652976290C088E
:10012000973E9700180D003E8A00170882009D2810
:10013000A528AE28B828C328CF280D08A53E9700CB
:10014000180D003E8A00170882000D08AD3E97008A
:10015000180D003E8A001708820087290D08B63E58
:100160009700180D003E8A00170882009B29AF29CE
:100170000D08C03E9700180D003E8A001708820047
:10018000C329D729EB290D08CB3E9700180D003E57
:100190008A0017088200FF29132A272A3B2A0D0804
:1001A000D73E9700180D003E8A00170882004F2A9C
:1001B0000C08E03E9700180D003E8A0017088200E8
:1001C000E628EE28F72801290C2918290D08EE3E0B
:1001D0009700180D003E8A00170882000D08F63EB1
:1001E0009700180D003E8A0017088200872A0D0824
:1001F000FF3E9700180D003E8A00170882008A2AE9
:100200008B2A0D08093E9700180D013E8A00170839
:1002100082008D2A8E2A8F2A0D08143E9700180D11
:10022000013E8A0017088200902A912A922A932A76
:100230000D08203E9700180D013E8A001708820025
:10024000942A0F08293E9700180D013E8A001708CE
:10025000820031342E344D3465346E3475345F345D
:10026000313400340F083A3E9700180D013E8A00E1
:100270001708820032342E344D3465346E347534B0
:100280005F34323400340F084B3E9700180D013EA6
:100290008A001708820033342E344D3465346E34AE
:1002A00075345F34333400340F085C3E9700180D0A
:1002B000013E8A001708820034342E344D346534F0
:1002C0006E3475345F34343400340F086D3E97005B
:1002D000180D013E8A001708820035342E344D3443
:1002E00065346E3475345F34353400340F087E3E27
:1002F0009700180D013E8A001708820036342E340C
:100300004D3465346E3475345F34363400340F0840
:100310008F3E9700180D013E8A0017088200323484
:100320002E3431342E345334753462344D346534C4
:100330006E34753400340F08A33E9700180D013E4B
:100340008A001708820033342E3431342E3453346B
:10035000753462344D3465346E34753400340F08AE
:10036000B73E9700180D013E8A001708820033340B
:100370002E3432342E345334753462344D34653473
:100380006E34753400340F08CB3E9700180D013ED3
:100390008A001708820034342E3431342E3453341A
:1003A000753462344D3465346E34753400340F085E
:1003B000DF3E9700180D013E8A0017088200343492
:1003C0002E3432342E345334753462344D34653423
:1003D0006E34753400340F08F33E9700180D013E5B
:1003E0008A001708820034342E3433342E345334C8
:1003F000753462344D3465346E34753400340F080E
:10040000073E9700180D023E8A0017088200353417
:100410002E3431342E345334753462344D346534D3
:100420006E34753400340F081B3E9700180D023EE1
:100430008A001708820035342E3432342E34533477
:10044000753462344D3465346E34753400340F08BD
:100450002F3E9700180D023E8A001708820035349F
:100460002E3433342E345334753462344D34653481
:100470006E34753400340F08433E9700180D023E69
:100480008A001708820035342E3434342E34533425
:10049000753462344D3465346E34753400340F086D
:1004A000573E9700180D023E8A0017088200363426
:1004B0002E3431342E345334753462344D34653433
:1004C0006E34753400340C086B3E9700180D023EF4
:1004D0008A0017088200712A7F2A802A812A822AAC
:1004E000832A95228F012C20FF3903197A2AB423FD
:1004F0008F0A732A93019F23930B7B2A172B172BA9
:10050000172B172B172B172B7E2B7E2B7E2B7E2B3F
:100510007E2B7E2B7E2B7E2B7E2B7E2B7E2B7E2B93
:100520007E2B7E2B7E2B7E2B7E2B0130BC23EB2360
:100530000800BC233C30B4230800C030BC230800B2
:100540008F018120FF3903190800B4238F0AA12AE3
:100550008F018F20FF3903190800B4238F0AA92ABD
:100560008C010C08031DB82AF03096051614BE2A1B
:10057000053C031DBE2AF030960596149522161CE4
:10058000D22AA0228F3099229D228C0A0C08063C88
:100590000319CD2AA0228C03E22A8C01A022053067
:1005A0008C00E22A8C038C1BDA2AA0229D228C0A62
:1005B0000C08DF2A05308C00A0229D228C01A0228D
:1005C000CF3099229F23F03096050B108B151430F5
:1005D0009000910192011618FA2A9618002B16190C
:1005E0000B2B9619062B910BEB2A920BEB2A900BF7
:1005F000EB2A8B2B8C038C1FB12A05308C00B12A7F
:100600008C0A0C08063C03198C01B12AF0309605BF
:100610000B108B158B2B0C089100910A0130920066
:10062000910B152B0318632A172B920C102B732098
:100630008E00003C0319B12A8D010D08031D242BE7
:10064000F030960516142B2B0E030D02031D2B2BD9
:10065000F030960596149522161C442BA8220E08FD
:10066000013C0319552B8F3099229D228D0A0E08CB
:100670000D0203193E2BA8228D03552B8D01A822B4
:100680000E088D008D03552B8D038D1B4C2BA8223E
:100690009D228D0A0D08522B0E088D008D03A82275
:1006A0009D228D01A822CF3099229F23F0309605FC
:1006B0000B108B15143090009101920116186D2BC0
:1006C0009618742B16197C2B96197A2B910B5E2B8E
:1006D000920B5E2B900B5E2BB12A8D038D1F1D2B71
:1006E0000E088D008D031D2B8D0A0E080D020319B7
:1006F0008D011D2B8D01B12A9522D8288F012C2028
:10070000FF390319862BB4238F0A7F2B93019F2374
:10071000930B872B1D2B95228F014520FF39031941
:10072000942BB4238F0A8D2BC030BC238F015C2007
:10073000FF3903199E2BB4238F0A972B25280330EA
:100740009200910106080F38013E031DA22B910B68
:08075000A72B920BA22B08005D
:080758008514000085101E301D
:100760009900990BB12B08009B001B0E8600AC234F
:100770001B088600AC23080085119B001B0E860019
:10078000AC231B088600AC2385150800F0308605D5
:10079000F5308505080085018601EB2385110330BE
:1007A0008604AC23EB2303308604AC230330860499
:1007B000AC2302308600AC2302308600AC23083024
:1007C0008600AC230C30B4230630B4230130B423AC
:1007D000EB238515080005309A009901990BEE2B43
:0607E0009A0BEE2B08004D
:02400E00F13F80
:00000001FF
