:020000040000FA
:020000001B28BB
:040002000034003492
:080008009300030E94000B109D
:1000100006080F38013E031916288B11061E151409
:10002000861E9514061F9515861F1515140E830040
:10003000930E130E0900831600308100D123831222
:10004000D623950188308B04962B63000000150899
:080050000F3903192528BA2A13
:080058000E08343E9600170D5E
:10006000003E8A00160882004134633474346934D7
:100070006F346E34203443346F346D3470346C34E8
:10008000653474346534213400340E084D3E9600D6
:10009000170D003E8A0016088200203420344D34AB
:1000A0006934633472346F344D3465346E3475346E
:1000B0004C346934623400340E08643E9600170DE7
:1000C000003E8A00160882002034203476346534DD
:1000D0007234203431342E34303420346234653478
:1000E0007434613400340C087B3E9600170D003EDA
:1000F0008A001608820003340334033403340334C3
:100100000C08883E9600170D003E8A0016088200F3
:10011000152926293729482959290C08953E960082
:10012000170D003E8A00160882009A28A528B028DC
:10013000BB28C6280D08A23E9600170D003E8A0077
:10014000160882006A297D298F290D08AD3E960088
:10015000170D003E8A0016088200A129B429C6297D
:100160000D08B83E9600170D003E8A001608820062
:10017000D829EB29002A0D08C33E9600170D003E32
:100180008A0016088200102A232A382A0D08CE3E3B
:100190009600170D003E8A0016088200482A5B2A46
:1001A000702A0C08D93E9600170D003E8A001608EA
:1001B0008200DE28E928F428FF280A290D08E63EF7
:1001C0009600170D003E8A0016088200942A952A90
:1001D000962A0D08F13E9600170D003E8A0016087B
:1001E0008200972A982A992A0D08FC3E9600170D3E
:1001F000003E8A00160882009A2A9B2A9C2A0D0833
:10020000073E9600170D013E8A00160882009D2ABF
:100210009E2A9F2A0D08123E9600170D013E8A0065
:1002200016088200A02AA12AA22A0E081D3E9600C6
:10023000170D013E8A001608820031342E344D34E9
:1002400065346E3475345F34313400340E082E3E1C
:100250009600170D013E8A001608820032342E34B3
:100260004D3465346E3475345F34323400340E08E6
:100270003F3E9600170D013E8A0016088200333477
:100280002E344D3465346E3475345F343334003479
:100290000E08503E9600170D013E8A001608820097
:1002A00034342E344D3465346E3475345F34343424
:1002B00000340E08613E9600170D013E8A001608B4
:1002C000820035342E344D3465346E3475345F34E9
:1002D000353400340E08723E9600170D013E8A0038
:1002E0001608820031342E3431342E3447346134D0
:1002F000723461346734653400340E08853E9600EC
:10030000170D013E8A001608820031342E34323433
:100310002E3444346F346F347234733400340E0826
:10032000973E9600170D013E8A0016088200313470
:100330002E3433342E3448346F347534733465348A
:1003400000340E08A93E9600170D013E8A001608DB
:10035000820032342E3431342E34473461347234D6
:1003600061346734653400340E08BC3E9600170DC6
:10037000013E8A001608820032342E3432342E3484
:1003800044346F346F347234733400340E08CE3E0C
:100390009600170D013E8A001608820032342E3472
:1003A00033342E3448346F34753473346534003448
:1003B0000E08E03E9600170D013E8A0016088200E6
:1003C00033342E3431342E34523465347634693437
:1003D0006534773400340E08F33E9600170D013E65
:1003E0008A001608820033342E3432342E345334CB
:1003F00068347534743420344F34663466340034D1
:100400000E08083E9600170D023E8A00160882006C
:1004100033342E3433342E344634413451340034A2
:100420000E08183E9600170D023E8A00160882003C
:1004300034342E3431342E345234653476346934C5
:100440006534773400340E082B3E9600170D023EBB
:100450008A001608820034342E3432342E34533459
:1004600068347534743420344F3466346634003460
:100470000E08403E9600170D023E8A0016088200C4
:1004800034342E3433342E34463441345134003431
:100490000E08503E9600170D023E8A001608820094
:1004A00035342E3431342E3443346F346E34663464
:1004B0006934673400340E08633E9600170D023E1F
:1004C0008A001608820035342E3432342E345334E8
:1004D00065347434743469346E346734733400347E
:1004E0000E08783E9600170D023E8A00160882001C
:1004F00035342E3433342E34413462346F34753411
:10050000743400340C088A3E9600170D023E8A00AF
:10051000160882008F2A902A912A922A932A252B44
:10052000252B252B252B252B892B892B892B892BBB
:10053000892B892B892B892B892B892B892B892B1B
:10054000892B892B892B0130C723F6230800C03063
:10055000C72308008E018020FF3903190800BF233C
:100560008E0AAB2A8E018D20FF3903190800BF23A4
:100570008E0AB32A8C010C08031DC22AF03095059F
:100580001514C82A043C031DC82AF030950595149B
:10059000A322151CDE2AAA228F30C7233C30BF239A
:1005A000A7228C0A0C08053C0319D92AAA228C031D
:1005B000F02A8C01AA2204308C00F02A8C038C1BB8
:1005C000E62AAA22A7228C0A0C08EB2A04308C0007
:1005D000AA22A7228C01AA22CF30C7233C30BF23F6
:1005E000AA23F03095050B108B1514308F00900165
:1005F00091011518082B95180E2B9519192B151903
:10060000142B900BF92A910BF92A8F0BF92A962BB0
:100610008C038C1FBB2A04308C00BB2A8C0A0C086C
:10062000053C03198C01BB2AF03095050B108B1586
:10063000962B0C089000900A01309100900B232B10
:100640000318822A252B910C1E2B8D010D08031DEA
:100650002D2BF03095051514362B732090001003C8
:100660000D02031D362BF03095059514A322151CA1
:100670004D2BB2228F30C7233C30BF23A7228D0AD7
:1006800073200D020319472BB2228D03602B8D01BD
:10069000B22273208D008D03602B8D038D1B552B93
:1006A000B222A7228D0A0D085B2B73208D008D03CB
:1006B000B222A7228D01B222CF30C7233C30BF2304
:1006C000AA23F03095050B108B1514308F00900184
:1006D00091011518782B95187F2B9519872B1519D3
:1006E000852B900B692B910B692B8F0B692BBB2AE8
:1006F0008D038D1F262B73208D008D03262B8D0AD5
:1007000073200D0203198D01262B8D01BB2AA32214
:10071000D1288E012C20FF390319912BBF238E0A7B
:100720008A2B9201AA23920B922B262BA3228E01B5
:100730004520FF3903199F2BBF238E0A982BC03009
:10074000C7238E015C20FF390319A92BBF238E0A12
:10075000A22B252803309100900106080F38013E96
:0E076000031DAD2B900BB22B910BAD2B08009F
:02076E008514F0
:10077000000085101E309800980BBC2B08009A00D2
:100780001A0E8600B7231A088600B72308008511C1
:100790009A001A0E8600B7231A088600B72385151B
:1007A0000800F0308605F5308505080085018601D2
:1007B000F623851103308604B723F623033086041D
:1007C000B72303308604B72302308600B7230230F4
:1007D0008600B72308308600B7230C30BF230630CD
:1007E000BF230130BF23F62385150800053099008B
:0C07F0009801980BF92B990BF92B0800CD
:02400E00F13F80
:00000001FF
