:020000040000FA
:020000001B28BB
:040002000034003492
:080008009300030E94000B109D
:1000100006080F38013E031916288B11061E151409
:10002000861E9514061F9515861F1515140E830040
:10003000930E130E0900831600308100B323831240
:10004000B823950188308B04782B630000001508D5
:080050000F3903192528A82A25
:080058000E08343E9600170D5E
:10006000003E8A00160882004134633474346934D7
:100070006F346E34203443346F346D3470346C34E8
:10008000653474346534213400340E084D3E9600D6
:10009000170D003E8A0016088200203420344D34AB
:1000A0006934633472346F344D3465346E3475346E
:1000B0004C346934623400340E08643E9600170DE7
:1000C000003E8A00160882002034203476346534DD
:1000D0007234203431342E34303420346234653478
:1000E0007434613400340C087B3E9600170D003EDA
:1000F0008A001608820003340334033403340334C3
:100100000C08883E9600170D003E8A0016088200F3
:10011000152926293729482959290C08953E960082
:10012000170D003E8A00160882009A28A528B028DC
:10013000BB28C6280D08A23E9600170D003E8A0077
:10014000160882006A297D298F290D08AD3E960088
:10015000170D003E8A0016088200A129B429C6297D
:100160000D08B83E9600170D003E8A001608820062
:10017000D829EB29002A0D08C33E9600170D003E32
:100180008A0016088200102A232A382A0D08CE3E3B
:100190009600170D003E8A0016088200482A5B2A46
:1001A000702A0C08D93E9600170D003E8A001608EA
:1001B0008200DE28E928F428FF280A290D08E63EF7
:1001C0009600170D003E8A0016088200822A832AB4
:1001D000842A0D08F13E9600170D003E8A0016088D
:1001E0008200852A862A872A0D08FC3E9600170D74
:1001F000003E8A0016088200882A892A8A2A0D0869
:10020000073E9600170D013E8A00160882008B2AD1
:100210008C2A8D2A0D08123E9600170D013E8A0089
:10022000160882008E2A8F2A902A0E081D3E9600FC
:10023000170D013E8A001608820031342E344D34E9
:1002400065346E3475345F34313400340E082E3E1C
:100250009600170D013E8A001608820032342E34B3
:100260004D3465346E3475345F34323400340E08E6
:100270003F3E9600170D013E8A0016088200333477
:100280002E344D3465346E3475345F343334003479
:100290000E08503E9600170D013E8A001608820097
:1002A00034342E344D3465346E3475345F34343424
:1002B00000340E08613E9600170D013E8A001608B4
:1002C000820035342E344D3465346E3475345F34E9
:1002D000353400340E08723E9600170D013E8A0038
:1002E0001608820031342E3431342E3447346134D0
:1002F000723461346734653400340E08853E9600EC
:10030000170D013E8A001608820031342E34323433
:100310002E3444346F346F347234733400340E0826
:10032000973E9600170D013E8A0016088200313470
:100330002E3433342E3448346F347534733465348A
:1003400000340E08A93E9600170D013E8A001608DB
:10035000820032342E3431342E34473461347234D6
:1003600061346734653400340E08BC3E9600170DC6
:10037000013E8A001608820032342E3432342E3484
:1003800044346F346F347234733400340E08CE3E0C
:100390009600170D013E8A001608820032342E3472
:1003A00033342E3448346F34753473346534003448
:1003B0000E08E03E9600170D013E8A0016088200E6
:1003C00033342E3431342E34523465347634693437
:1003D0006534773400340E08F33E9600170D013E65
:1003E0008A001608820033342E3432342E345334CB
:1003F00068347534743420344F34663466340034D1
:100400000E08083E9600170D023E8A00160882006C
:1004100033342E3433342E344634413451340034A2
:100420000E08183E9600170D023E8A00160882003C
:1004300034342E3431342E345234653476346934C5
:100440006534773400340E082B3E9600170D023EBB
:100450008A001608820034342E3432342E34533459
:1004600068347534743420344F3466346634003460
:100470000E08403E9600170D023E8A0016088200C4
:1004800034342E3433342E34463441345134003431
:100490000E08503E9600170D023E8A001608820094
:1004A00035342E3431342E3443346F346E34663464
:1004B0006934673400340E08633E9600170D023E1F
:1004C0008A001608820035342E3432342E345334E8
:1004D00065347434743469346E346734733400347E
:1004E0000E08783E9600170D023E8A00160882001C
:1004F00035342E3433342E34413462346F34753411
:10050000743400346B2B6B2B6B2B6B2B6B2B6B2B8B
:100510006B2B6B2B6B2B6B2B6B2B6B2B6B2B6B2B2B
:100520006B2B0130A923D8230800C030A923080071
:100530008E018020FF3903190800A1238E0A992A11
:100540008E018D20FF3903190800A1238E0AA12AEC
:100550008C010C08031DB02AF03095051514B62A3D
:10056000043C031DB62AF030950595149122151C04
:10057000CC2A98228F30A9233C30A12395228C0AC3
:100580000C08053C0319C72A98228C03DE2A8C012B
:10059000982204308C00DE2A8C038C1BD42A9822EB
:1005A00095228C0A0C08D92A04308C0098229522B6
:1005B0008C019822CF30A9233C30A1238C23F0302A
:1005C00095050B108B1514308F00900191011518B3
:1005D000F62A9518FC2A9519072B1519022B900B52
:1005E000E72A910BE72A8F0BE72A782B8C038C1FC5
:1005F000A92A04308C00A92A8C0A0C08053C03198E
:100600008C01A92AF03095050B108B15782B8D01E4
:100610000D08031D0F2BF03095051514182B7320B2
:10062000900010030D02031D182BF0309505951452
:100630009122151C2F2BA0228F30A9233C30A123FF
:1006400095228D0A73200D020319292BA0228D03F8
:10065000422B8D01A02273208D008D03422B8D0330
:100660008D1B372BA02295228D0A0D083D2B732060
:100670008D008D03A02295228D01A022CF30A923C9
:100680003C30A1238C23F03095050B108B151430D2
:100690008F009001910115185A2B9518612B95190F
:1006A000692B1519672B900B4B2B910B4B2B8F0B39
:1006B0004B2BA92A8D038D1F082B73208D008D03D2
:1006C000082B8D0A73200D0203198D01082B8D0153
:1006D000A92A9122D1288E012C20FF390319732BCE
:1006E000A1238E0A6C2B92018C23920B742B082B66
:1006F00091228E014520FF390319812BA1238E0AF7
:100700007A2BC030A9238E015C20FF3903198B2B73
:10071000A1238E0A842B252803309100900106081E
:100720000F38013E031D8F2B900B942B910B8F2BB9
:020730000800BF
:0E0732008514000085101E309800980B9E2B39
:1007400008009A001A0E860099231A088600992339
:10075000080085119A001A0E860099231A0886004F
:10076000992385150800F0308605F53085050800C9
:1007700085018601D8238511033086049923D82367
:1007800003308604992303308604992302308600BF
:1007900099230230860099230830860099230C3073
:1007A000A1230630A1230130A123D82385150800F9
:1007B000053099009801980BDB2B990BDB2B080077
:02400E00F13F80
:00000001FF
