:020000040000FA
:020000001B28BB
:040002000034003492
:080008009300030E94000B109D
:1000100006080F38013E031916288B11061E151409
:10002000861E9514061F1515861F9515140E830040
:10003000930E130E090083160030810047238312AC
:100040004C23950188308B04082B630000001508B1
:080050000F3903192528382A95
:080058000E08343E9600170D5E
:10006000003E8A00160882004134633474346934D7
:100070006F346E34203443346F346D3470346C34E8
:10008000653474346534213400340E084D3E9600D6
:10009000170D003E8A0016088200203420344D34AB
:1000A0006934633472346F344D3465346E3475346E
:1000B0004C346934623400340E08643E9600170DE7
:1000C000003E8A00160882002034203476346534DD
:1000D0007234203431342E34303420346234653478
:1000E0007434613400340C087B3E9600170D003EDA
:1000F0008A001608820000340134023403340334C9
:100100000C08883E9600170D003E8A0016088200F3
:1001100009291A292B293C294D290C08953E9600BE
:10012000170D003E8A00160882009A28A228AB28E4
:10013000B528C0280D08A23E9600170D003E8A0083
:10014000160882000D08AA3E9600170D003E8A0090
:10015000160882005E290D08B33E9600170D003E7A
:100160008A0016088200722986290D08BD3E960075
:10017000170D003E8A00160882009A29AE29C2296E
:100180000D08C83E9600170D003E8A001608820032
:10019000D629EA29FE290C08D33E9600170D003E09
:1001A0008A0016088200D828E028E928F328FE28CB
:1001B0000D08E03E9600170D003E8A0016088200EA
:1001C0000D08E83E9600170D003E8A0016088200D2
:1001D000152A0D08F13E9600170D003E8A001608FC
:1001E0008200182A192A0D08FB3E9600170D003EC2
:1001F0008A00160882001B2A1C2A1D2A0D08063EAA
:100200009600170D013E8A00160882001E2A1F2A3A
:10021000202A0E08113E9600170D013E8A0016088E
:10022000820031342E344D3465346E3475345F348D
:10023000313400340E08223E9600170D013E8A002C
:100240001608820032342E344D3465346E347534E1
:100250005F34323400340E08333E9600170D013EF1
:100260008A001608820033342E344D3465346E34DF
:1002700075345F34333400340E08443E9600170D55
:10028000013E8A001608820034342E344D34653421
:100290006E3475345F34343400340E08553E9600A5
:1002A000170D013E8A001608820035342E344D3475
:1002B00065346E3475345F34353400340E08663E70
:1002C0009600170D013E8A001608820032342E3443
:1002D00031342E345334753462344D3465346E34D5
:1002E000753400340E087A3E9600170D013E8A00E0
:1002F0001608820033342E3431342E34533475349E
:1003000062344D3465346E34753400340E088E3EDC
:100310009600170D013E8A001608820033342E34F1
:1003200032342E345334753462344D3465346E3483
:10033000753400340E08A23E9600170D013E8A0067
:100340001608820034342E3431342E34533475344C
:1003500062344D3465346E34753400340E08B63E64
:100360009600170D013E8A001608820034342E34A0
:1003700032342E345334753462344D3465346E3433
:10038000753400340E08CA3E9600170D013E8A00EF
:100390001608820034342E3433342E3453347534FA
:1003A00062344D3465346E34753400340E08DE3EEC
:1003B0009600170D013E8A001608820035342E344F
:1003C00031342E345334753462344D3465346E34E4
:1003D000753400340E08F23E9600170D013E8A0077
:1003E0001608820035342E3432342E3453347534AA
:1003F00062344D3465346E34753400340E08063E74
:100400009600170D023E8A001608820035342E34FD
:1004100033342E345334753462344D3465346E3491
:1004200075340034FB2AFB2AFB2AFB2AFB2AFB2A11
:10043000FB2AFB2AFB2AFB2AFB2AFB2AFB2AFB2A94
:10044000FB2A01303D236C230800C0303D23080007
:100450008E018020FF390319080035238E0A292ACE
:100460008E018D20FF390319080035238E0A312AA9
:100470008C010C08031D402AF03095051514462AFE
:10048000043C031D462AF030950595142122151CC5
:100490005A2A28228F301C2325228C0A0C08053C5E
:1004A0000319552A28228C036A2A8C012822043039
:1004B0008C006A2A8C038C1B622A282225228C0A33
:1004C0000C08672A04308C00282225228C0128225F
:1004D000CF301C232023F03095050B108B151430E2
:1004E0008F00900191011518822A9518882A1519F4
:1004F000932A95198E2A900B732A910B732A8F0BCE
:10050000732A082B8C038C1F392A04308C00392A5B
:100510008C0A0C08053C03198C01392AF03095052A
:100520000B108B15082B7320003C0319392A8D0101
:100530000D08031D9F2AF03095051514A82A732075
:10054000900010030D02031DA82AF03095059514A4
:100550002122151CC12A30227320013C0319D22A02
:100560008F301C2325228D0A73200D020319BB2A0C
:1005700030228D03D22A8D01302273208D008D030D
:10058000D22A8D038D1BC92A302225228D0A0D08FF
:10059000CF2A73208D008D03302225228D01302239
:1005A000CF301C232023F03095050B108B15143011
:1005B0008F00900191011518EA2A9518F12A151952
:1005C000F92A9519F72A900BDB2A910BDB2A8F0B5E
:1005D000DB2A392A8D038D1F982A73208D008D0305
:1005E000982A8D0A73200D0203198D01982A8D0116
:1005F000392A2122CB288E012C20FF390319032B05
:1006000035238E0AFC2A92012023920B042B982A70
:1006100021228E014520FF390319112B35238E0A23
:100620000A2BC0303D238E015C20FF3903191B2BA0
:1006300035238E0A142B25283D233C303523080012
:1006400003309100900106080F38013E031D232B53
:0A065000900B282B910B232B0800C0
:06065A008514000085106C
:100660001E309800980B322B08009A001A0E860054
:100670002D231A0886002D23080085119A001A0ED2
:1006800086002D231A0886002D2385150800F030DA
:100690008605F53085050800850186016C238511E6
:1006A000033086042D236C23033086042D2303306E
:1006B00086042D23023086002D23023086002D2350
:1006C000083086002D230C303523063035230130C9
:1006D00035236C2385150800053099009801980B87
:0806E0006F2B990B6F2B080032
:02400E00F13F80
:00000001FF
