:020000040000FA
:020000001B28BB
:040002000034003492
:080008009600030E97000B1097
:1000100006080F38013E03191628061E1114861E05
:100020009114061F9115861F11158B11170E830051
:10003000960E160E09004F308400800184030408D8
:100040000B3C031D1D288316003081006C23831296
:10005000712391010B1088308B044029630000004C
:0A00600011080F39031D4E282E2849
:06006A000F083D3E980066
:10007000190D003E8A00180882004134633474343C
:1000800069346F346E34203443346F346D347034DB
:100090006C34653474346534213400348C010C08BC
:1000A000031D5528910111145A28043C031D5A2898
:1000B000910191149123111C6E2830218F3057210A
:1000C00054218C0A0C08053C0319692830218C0343
:1000D0007D288C01302104308C007D288C038C1B02
:1000E0007528302154218C0A7A2804308C00302164
:1000F00054218C013021CF30572120211430900021
:100100009201930111189128911899289119A32807
:100110001119A128920B8228930B8228900B822818
:100120004029110895008C038C1F4F2804308C0047
:100130004F28110895008C0A0C08053C03198C0106
:100140004F28202140290C0A920001309300920B85
:10015000AC280318202BAE28930CA72889218E00E9
:10016000003C03194F288D010D08031DBA28910189
:100170001114C0280E030D02031DC0289101911413
:100180009123111CD82838210E08013C0319E728B7
:100190008F30572154218D0A0E080D020319D328E0
:1001A00038218D03E7288D0138210E038D00E728C3
:1001B0008D038D1BDF28382154218D0AE4280E037E
:1001C0008D00382154218D013821CF305721202135
:1001D00014309000920193011118FB289118032903
:1001E00091190F2911190B29920BEC28930BEC286C
:1001F000900BEC284F28110895008D038D1FB42813
:100200000E038D00B428110895008D0A0E080D020A
:1002100003198D01B428150891008D014F289123F1
:10022000E2298F013520FF39031919295A238F0A32
:10023000122994012021940B1A2915089100B42841
:1002400003309300920106080F38013E031D202958
:10025000920B2829930B232991010B108B15080071
:100260008F019621FF39031908005A238F0A31297B
:100270008F01A321FF39031908005A238F0A392956
:1002800091238F015B21FF39031949295A238F0AD2
:100290004229C03062238F017221FF39031953298B
:1002A0005A238F0A4C292E28C0306223080062236B
:1002B0003C305A2308000F08633E9800190D013E98
:1002C0008A0018088200203420344D3469346334A5
:1002D00072346F344D3465346E3475344C34693453
:1002E000623400340F087A3E9800190D013E8A00EE
:1002F0001808820020342034763465347234203477
:1003000031342E3430342034623465347434613402
:1003100000340C08913E9800190D013E8A0018081F
:100320008200003401340234033404340C089E3E4D
:100330009800190D013E8A0018088200212A322AED
:10034000432A542A652A0C08AB3E9800190D013E39
:100350008A0018088200B029B829C129CB29D629DA
:100360000D08B83E9800190D013E8A001808820059
:100370000D08C03E9800190D013E8A001808820041
:10038000762A0D08C93E9800190D013E8A0018080A
:100390008200872A982A0D08D33E9800190D013E45
:1003A0008A0018088200A92ABA2ACB2A0D08DE3E44
:1003B0009800190D013E8A0018088200DC2AED2AF7
:1003C000FE2A0F2B0C08EA3E9800190D013E8A0008
:1003D00018088200EF29F729002A0A2A152A0D0891
:1003E000F73E9800190D013E8A00180882000D089A
:1003F000FF3E9800190D013E8A0018088200452B27
:100400000D08083E9800190D023E8A001808820067
:10041000482B492B0D08123E9800190D023E8A0008
:10042000180882004B2B4C2B4D2B0D081D3E9800BD
:10043000190D023E8A00180882004E2B4F2B502BBC
:10044000512B0F08293E9800190D023E8A0018080A
:10045000820031342E344D3465346E3475345F345B
:10046000313400340F083A3E9800190D023E8A00DC
:100470001808820032342E344D3465346E347534AD
:100480005F34323400340F084B3E9800190D023EA1
:100490008A001808820033342E344D3465346E34AB
:1004A00075345F34333400340F085C3E9800190D06
:1004B000023E8A001808820034342E344D346534EC
:1004C0006E3475345F34343400340F086D3E980058
:1004D000190D023E8A001808820035342E344D343E
:1004E00065346E3475345F34353400340F087E3E25
:1004F0009800190D023E8A001808820032342E340A
:1005000031342E345334753462346D3400340F0872
:100510008F3E9800190D023E8A001808820033347D
:100520002E3431342E345334753462346D34003407
:100530000F08A03E9800190D023E8A00180882009C
:1005400033342E3432342E345334753462346D34B3
:1005500000340F08B13E9800190D023E8A001808B9
:10056000820034342E3431342E34533475346234B2
:100570006D3400340F08C23E9800190D023E8A0007
:100580001808820034342E3432342E345334753407
:1005900062346D3400340F08D33E9800190D023ECA
:1005A0008A001808820034342E3433342E34533405
:1005B000753462346D3400340F08E43E9800190D30
:1005C000023E8A001808820035342E3431342E342D
:1005D0005334753462346D3400340F08F53E98009E
:1005E000190D023E8A001808820035342E34323448
:1005F0002E345334753462346D3400340F08063EA3
:100600009800190D033E8A001808820035342E34F4
:1006100033342E345334753462346D3400340F085F
:10062000173E9800190D033E8A00180882003534E1
:100630002E3434342E345334753462346D340034F3
:100640000C08283E9800190D033E8A001808820005
:100650002D2B3B2B3C2B3D2B3E2B91238F0135200B
:10066000FF390319362B5A238F0A2F2B940120218F
:10067000940B372BAE28AE28AE28AE28AE28AE2875
:10068000AE28AE2811291129112911291129112962
:10069000112911291129112911291129112911298A
:0406A00011291129E2
:0C06A4008514000085101E309A009A0B8F
:1006B000572B08009C001C0E860052231C08860045
:1006C0005223080085119C001C0E860052231C0832
:1006D0008600522385150800F0308605F530850523
:1006E0000800850186019523851103308604522375
:1006F00095230330860452230330860452230230AC
:10070000860052230230860052230830860052238E
:100710000C305A2306305A2301305A23952385156D
:100720000800013062239523080005309B009A01E0
:0A0730009A0B982B9B0B982B0800E6
:02400E00F13F80
:00000001FF
