:020000040000FA
:020000000C28CA
:040002000034003492
:080008009500030E9600160E90
:100010008300950E150E09004F3084008001840383
:1000200004080B3C031D0E28831600308100C723F3
:100030008312CC239701382906080F38013E031993
:040040001C283B2815
:0C0044000F082A3E9800190D003E8A00AB
:100050001808820041346334743469346F346E3468
:10006000203443346F346D3470346C3465347434FC
:100070006534213400348C010C08031D4328F03012
:10008000970517144928053C031D4928F0309705AA
:100090009714EC23171C5D2828218F304F214C2109
:1000A0008C0A0C08063C0319582828218C036D285B
:1000B0008C01282105308C006D288C038C1B652851
:1000C00028214C218C0A0C086A2805308C00282134
:1000D0004C218C012821CF304F211B21143090005E
:1000E00091019201061E8128861E8A28061F9528E6
:1000F000861F9328910B7228920B7228900B7228FE
:100100003829F030970517148C038C1F3C280530D4
:100110008C003C28F030970597148C0A0C08063C9C
:1001200003198C013C281B2138290C089100910AE5
:1001300001309200910B9F280318762BA128920C76
:100140009A2881218E00003C03193C288D01170854
:1001500094000D08031DB028F03097051714B72838
:100160000E030D02031DB728F03097059714EC23FA
:10017000171CD02830210E08013C0319E1288F30CC
:100180004F214C218D0A0E080D020319CA28302177
:100190008D03E1288D0130210E088D008D03E128AB
:1001A0008D038D1BD82830214C218D0A0D08DE28A7
:1001B0000E088D008D0330214C218D013021CF3070
:1001C0004F211B211430900091019201061EF52849
:1001D000861EFF28061F0C29861F0829910BE6287A
:1001E000920BE628900BE6283C28F0309705171470
:1001F0008D038D1FA9280E088D008D03A928F030CE
:10020000970597148D0A0E080D0203198D01A92870
:100210008D01140897003C28EC23E8298F01222047
:10022000FF3903191629B5238F0A0F2993011B21C2
:10023000930B1729A92803309200910106080F3863
:10024000013E031D1B29910B2329920B1E29080037
:100250008F018F21FF3903190800B5238F0A29293F
:100260008F019D21FF3903190800B5238F0A312919
:10027000EC238F015321FF3903194129B5238F0A3C
:100280003A29C030BD238F016A21FF3903194B2958
:10029000B5238F0A44291C28C030BD230800BD2384
:1002A0003C30B52308000F085B3E9800190D013E55
:1002B0008A0018088200203420344D3469346334B5
:1002C00072346F344D3465346E3475344C34693463
:1002D000623400340F08723E9800190D013E8A0006
:1002E0001808820020342034763465347234203487
:1002F00031342E3430342034623465347434613413
:1003000000340C08893E9800190D013E8A00180837
:1003100082000034013402340334043403340C0802
:10032000973E9800190D013E8A0018088200332A72
:10033000442A552A662A772A882A0C08A53E98005E
:10034000190D013E8A0018088200AB29B329BC2987
:10035000C629D129DD290D08B33E9800190D013EAB
:100360008A00180882000D08BB3E9800190D013E56
:100370008A0018088200992A0D08C43E9800190DB9
:10038000013E8A0018088200AA2ABB2A0D08CE3E28
:100390009800190D013E8A0018088200CC2ADD2A37
:1003A000EE2A0D08D93E9800190D013E8A00180862
:1003B0008200FF2A102B212B322B0D08E53E9800DE
:1003C000190D013E8A0018088200432B542B652B1F
:1003D0000C08F03E9800190D013E8A0018088200B2
:1003E000F629FE29072A112A1C2A282A0D08FE3E72
:1003F0009800190D013E8A00180882000D08063E7B
:100400009800190D023E8A00180882009C2B0D08E6
:100410000F3E9800190D023E8A00180882009F2B9B
:10042000A02B0D08193E9800190D023E8A001808ED
:100430008200A22BA32BA42B0D08243E9800190D9B
:10044000023E8A0018088200A52BA62BA72BA82BFA
:100450000D08303E9800190D023E8A0018088200EF
:10046000A92BAA2BAB2B0F083B3E9800190D023E7F
:100470008A001808820031342E344D3465346E34CD
:1004800075345F34313400340F084C3E9800190D38
:10049000023E8A001808820032342E344D3465340E
:1004A0006E3475345F34323400340F085D3E98008A
:1004B000190D023E8A001808820033342E344D3460
:1004C00065346E3475345F34333400340F086E3E57
:1004D0009800190D023E8A001808820034342E3428
:1004E0004D3465346E3475345F34343400340F0861
:1004F0007F3E9800190D023E8A00180882003534AC
:100500002E344D3465346E3475345F3435340034F4
:100510000F08903E9800190D023E8A0018088200CC
:1005200036342E344D3465346E3475345F3436349D
:1005300000340F08A13E9800190D023E8A001808E9
:10054000820032342E3431342E34533475346234D4
:100550006D3400340F08B23E9800190D023E8A0037
:100560001808820033342E3431342E345334753429
:1005700062346D3400340F08C33E9800190D023EFA
:100580008A001808820033342E3432342E34533427
:10059000753462346D3400340F08D43E9800190D60
:1005A000023E8A001808820034342E3431342E344E
:1005B0005334753462346D3400340F08E53E9800CE
:1005C000190D023E8A001808820034342E34323469
:1005D0002E345334753462346D3400340F08F63ED3
:1005E0009800190D023E8A001808820034342E3417
:1005F00033342E345334753462346D3400340F0880
:10060000073E9800190D033E8A0018088200353411
:100610002E3431342E345334753462346D34003416
:100620000F08183E9800190D033E8A001808820032
:1006300035342E3432342E345334753462346D34C0
:1006400000340F08293E9800190D033E8A0018084F
:10065000820035342E3433342E34533475346234BE
:100660006D3400340F083A3E9800190D033E8A009D
:100670001808820035342E3434342E345334753413
:1006800062346D3400340F084B3E9800190D033E60
:100690008A001808820036342E3431342E34533414
:1006A000753462346D3400340F085C3E9800190DC7
:1006B000033E8A001808820036342E3432342E3439
:1006C0005334753462346D3400340F086D3E980035
:1006D000190D033E8A001808820036342E34333454
:1006E0002E345334753462346D3400340C087E3E3D
:1006F0009800190D033E8A0018088200842B922B63
:10070000932B942B952B962BEC238F012220FF39D2
:1007100003198D2BB5238F0A862B93011B21930B75
:100720008E2BA128A128A128A128A128A128A12891
:10073000A1280E290E290E290E290E290E290E296F
:100740000E290E290E290E290E290E290E290E29F1
:0A0750000E290E290E290E290E298C
:06075A008514000085106B
:100760001E309A009A0BB22B08009C001C0E8600CB
:10077000AD231C088600AD23080085119C001C0ECB
:100780008600AD231C088600AD2385150800F030D7
:100790008605F5308505080085018601F023851161
:1007A00003308604AD23F02303308604AD230330E9
:1007B0008604AD2302308600AD2302308600AD23CF
:1007C00008308600AD230C30B5230630B523013048
:1007D000B523F023851508000130BD23F023080060
:1007E00005309B009A019A0BF32B9B0BF32B08000F
:02400E00F13F80
:00000001FF
