:020000040000FA
:020000000C28CA
:040002000034003492
:080008009500030E9600160E90
:100010008300950E150E09004F3084008001840383
:1000200004080B3C031D0E288316003081000D23AD
:10003000831212239101DF2806080F38013E031DA9
:040040003B281C2815
:0C0044000F082A3E9700180D003E8A00AD
:100050001708820041346334743469346F346E3469
:10006000203443346F346D3470346C3465347434FC
:100070006534213400348C013223CF20F3208C0AE4
:100080000C08053C03194728CF208C034B288C0112
:10009000CF2004308C00C2201430900092019301D4
:1000A000061E5F28861E6528061F6D28861F6B2882
:1000B000920B5028930B5028900B5028DF288C036C
:1000C0008C1F3C2804308C003C288C0A0C08053C12
:1000D00003198C013C28C220DF280C0A9200013051
:1000E0009300920B76280318C12A7828930C712864
:1000F0002A218E00003C03193C288D013223D72091
:100100000E08013C03199128F3208D0A0E080D02F8
:1001100003198D28D7208D0391288D01D7200E0338
:100120008D00C2201430900092019301061EA52874
:10013000861EAB28061FB328861FB128920B96286F
:10014000930B9628900B96283C288D038D1F7E28B4
:100150000E038D007E288D0A0E080D0203198D01F5
:100160007E288D013C28322383298F012220FF39EC
:100170000319BD28FB228F0AB6289401C220940BD4
:10018000BE287E2803309300920106080F38013EF6
:10019000031DC228920BCA28930BC52808008F01A3
:1001A0003721FF3903190800FB228F0AD0288F015D
:1001B0004421FF3903190800FB228F0AD828322373
:1001C0008F01FC20FF390319E828FB228F0AE12860
:1001D000C03003238F011321FF390319F228FB22BA
:1001E0008F0AEB281C288F30F820C030032308002A
:1001F00003233C30FB2208000F08043E9700180D33
:10020000013E8A0017088200203420344D346934BE
:10021000633472346F344D3465346E3475344C3419
:100220006934623400340F081B3E9700180D013EFC
:100230008A00170882002034203476346534723402
:10024000203431342E343034203462346534743404
:10025000613400340C08323E9700180D013E8A00CC
:1002600017088200003401340234033404340C08CB
:100270003F3E9700180D013E8A0017088200C229F0
:10028000D329E429F529062A0C084C3E9700180DBD
:10029000013E8A00170882005129592962296C29D8
:1002A00077290D08593E9700180D013E8A0017085E
:1002B00082000D08613E9700180D013E8A00170864
:1002C0008200172A0D086A3E9700180D013E8A0029
:1002D00017088200282A392A0D08743E9700180D45
:1002E000013E8A00170882004A2A5B2A6C2A0D0800
:1002F0007F3E9700180D013E8A00170882007D2A74
:100300008E2A9F2AB02A0C088B3E9700180D013EBA
:100310008A001708820090299829A129AB29B629BB
:100320000D08983E9700180D013E8A0017088200BC
:100330000D08A03E9700180D013E8A0017088200A4
:10034000E62A0D08A93E9700180D013E8A001708FD
:100350008200E92AEA2A0D08B33E9700180D013EF3
:100360008A0017088200EC2AED2AEE2A0D08BE3E0C
:100370009700180D013E8A0017088200EF2AF02A24
:10038000F12AF22A0F08CA3E9700180D013E8A0092
:100390001708820031342E344D3465346E34753490
:1003A0005F34313400340F08DB3E9700180D013EF6
:1003B0008A001708820032342E344D3465346E348E
:1003C00075345F34323400340F08EC3E9700180D5A
:1003D000013E8A001708820033342E344D346534D0
:1003E0006E3475345F34333400340F08FD3E9700AB
:1003F000180D013E8A001708820034342E344D3423
:1004000065346E3475345F34343400340F080E3E76
:100410009700180D023E8A001708820035342E34EA
:100420004D3465346E3475345F34353400340F0820
:100430001F3E9700180D023E8A00170882003234D2
:100440002E3431342E345334753462346D340034E8
:100450000F08303E9700180D023E8A0017088200F0
:1004600033342E3431342E345334753462346D3495
:1004700000340F08413E9700180D023E8A0017080D
:10048000820033342E3432342E3453347534623493
:100490006D3400340F08523E9700180D023E8A005A
:1004A0001708820034342E3431342E3453347534EA
:1004B00062346D3400340F08633E9700180D023E1D
:1004C0008A001708820034342E3432342E345334E8
:1004D000753462346D3400340F08743E9700180D83
:1004E000023E8A001708820034342E3433342E340E
:1004F0005334753462346D3400340F08853E9700F0
:10050000180D023E8A001708820035342E3431342B
:100510002E345334753462346D3400340F08963EF3
:100520009700180D023E8A001708820035342E34D9
:1005300032342E345334753462346D3400340F0841
:10054000A73E9700180D023E8A0017088200353436
:100550002E3433342E345334753462346D340034D5
:100560000F08B83E9700180D023E8A001708820057
:1005700035342E3434342E345334753462346D347F
:1005800000340C08C93E9700180D023E8A00170877
:100590008200CE2ADC2ADD2ADE2ADF2A32238F01DE
:1005A0002220FF390319D72AFB228F0AD02A94016F
:1005B000C220940BD82A7828782878287828782898
:1005C000782878287828B528B528B528B528B528FA
:1005D000B528B528B528B528B528B528B528B52833
:0605E000B528B528B5287E
:0A05E6008514000085101E309900F6
:1005F000990BF82A08009B001B0E8600F3221B08AB
:100600008600F322080085119B001B0E8600F32252
:100610001B088600F32285150800F0308605F530AA
:10062000850508008501860136238511033086047F
:10063000F322362303308604F32203308604F322A8
:1006400002308600F32202308600F3220830860052
:10065000F3220C30FB220630FB220130FB22362332
:1006600085150800013003233623080005309A0061
:0C0670009901990B392B9A0B392B0800CB
:02400E00F13F80
:00000001FF
