:020000040000FA
:020000001B28BB
:040002000034003492
:080008009300030E94000B109D
:1000100006080F38013E031916288B11061E151409
:10002000861E9514061F9515861F1515140E830040
:10003000930E130E0900831600308100C123831232
:10004000C623950188308B04842B630000001508BB
:080050000F3903192528A82A25
:080058000C08343E9600170D60
:10006000003E8A0016088200C128D228E328F4281E
:1000700005290C08413E9600170D003E8A0016081F
:100080008200462851285C28672872280D084E3EB9
:100090009600170D003E8A00160882006A297D2905
:1000A0008F290D08593E9600170D003E8A0016084C
:1000B0008200A129B429C6290D08643E9600170DB7
:1000C000003E8A0016088200D829EB29002A0D0874
:1000D0006F3E9600170D003E8A0016088200102A17
:1000E000232A382A0D087A3E9600170D003E8A0012
:1000F00016088200482A5B2A702A0C08853E960062
:10010000170D003E8A00160882008A289528A0282C
:10011000AB28B6280D08923E9600170D003E8A00C7
:1001200016088200822A832A842A0D089D3E9600A2
:10013000170D003E8A0016088200852A862A872A23
:100140000D08A83E9600170D003E8A001608820092
:10015000882A892A8A2A0D08B33E9600170D003E88
:100160008A00160882008B2A8C2A8D2A0D08BE3E32
:100170009600170D003E8A00160882008E2A8F2AEC
:10018000902A0E08C93E9600170D003E8A001608F8
:10019000820031342E344D3465346E3475345F341E
:1001A000313400340E08DA3E9600170D003E8A0006
:1001B0001608820032342E344D3465346E34753472
:1001C0005F34323400340E08EB3E9600170D003ECB
:1001D0008A001608820033342E344D3465346E3470
:1001E00075345F34333400340E08FC3E9600170D2E
:1001F000003E8A001608820034342E344D346534B3
:100200006E3475345F34343400340E080D3E96007D
:10021000170D013E8A001608820035342E344D3405
:1002200065346E3475345F34353400340C081E3E4A
:100230009600170D013E8A0016088200033403342D
:100240000334033403340E082B3E9600170D013E91
:100250008A0016088200203420344D346934633417
:1002600072346F344D3465346E3475344C346934C3
:10027000623400340E08423E9600170D013E8A009B
:1002800016088200203420347634653472342034E9
:1002900031342E3430342034623465347434613473
:1002A00000340E08593E9600170D013E8A001608CC
:1002B000820041346334743469346F346E342034D2
:1002C00043346F346D3470346C3465347434653455
:1002D000213400340E08723E9600170D013E8A004C
:1002E0001608820031342E3431342E3447346134D0
:1002F000723461346734653400340E08853E9600EC
:10030000170D013E8A001608820031342E34323433
:100310002E3444346F346F347234733400340E0826
:10032000973E9600170D013E8A0016088200313470
:100330002E3433342E3448346F347534733465348A
:1003400000340E08A93E9600170D013E8A001608DB
:10035000820032342E3431342E34473461347234D6
:1003600061346734653400340E08BC3E9600170DC6
:10037000013E8A001608820032342E3432342E3484
:1003800044346F346F347234733400340E08CE3E0C
:100390009600170D013E8A001608820032342E3472
:1003A00033342E3448346F34753473346534003448
:1003B0000E08E03E9600170D013E8A0016088200E6
:1003C00033342E3431342E34523465347634693437
:1003D0006534773400340E08F33E9600170D013E65
:1003E0008A001608820033342E3432342E345334CB
:1003F00068347534743420344F34663466340034D1
:100400000E08083E9600170D023E8A00160882006C
:1004100033342E3433342E344634413451340034A2
:100420000E08183E9600170D023E8A00160882003C
:1004300034342E3431342E345234653476346934C5
:100440006534773400340E082B3E9600170D023EBB
:100450008A001608820034342E3432342E34533459
:1004600068347534743420344F3466346634003460
:100470000E08403E9600170D023E8A0016088200C4
:1004800034342E3433342E34463441345134003431
:100490000E08503E9600170D023E8A001608820094
:1004A00035342E3431342E3443346F346E34663464
:1004B0006934673400340E08633E9600170D023E1F
:1004C0008A001608820035342E3432342E345334E8
:1004D00065347434743469346E346734733400347E
:1004E0000E08783E9600170D023E8A00160882001C
:1004F00035342E3433342E34413462346F34753411
:1005000074340034772B772B772B772B772B772B43
:10051000772B772B772B772B772B772B772B772BCB
:10052000772B0130B723E6230800C030B72308003B
:100530008E012C20FF3903190800AF238E0A992A57
:100540008E013920FF3903190800AF238E0AA12A32
:100550008C010C08031DB02AF03095051514B62A3D
:10056000043C031DB62AF030950595149122151C04
:10057000CC2A98228F30B7233C30AF2395228C0AA7
:100580000C08053C0319C72A98228C03DE2A8C012B
:10059000982204308C00DE2A8C038C1BD42A9822EB
:1005A00095228C0A0C08D92A04308C0098229522B6
:1005B0008C019822CF30B7233C30AF239A23F03000
:1005C00095050B108B1514308F00900191011518B3
:1005D000F62A9518FF2A95190D2B1519082B900B43
:1005E000E72A910BE72A8F0BE72A2428F03095059C
:1005F00015148C038C1FA92A04308C00A92AF03012
:10060000950595148C0A0C08053C03198C01A92A40
:10061000F03095050B108B1524288D010D08031D56
:10062000152BF030950515141E2B16219000100384
:100630000D02031D1E2BF030950595149122151CFB
:10064000352BA0228F30B7233C30AF2395228D0A63
:1006500016210D0203192F2BA0228D03482B8D018B
:10066000A02216218D008D03482B8D038D1B3D2B61
:10067000A02295228D0A0D08432B16218D008D0393
:10068000A02295228D01A022CF30B7233C30AF238A
:100690009A23F03095050B108B1514308F009001C4
:1006A00091011518602B95186A2B9519752B151942
:1006B000732B900B512B910B512B8F0B512BA92A84
:1006C000F030950515148D038D1F0E2B16218D000E
:1006D0008D030E2BF030950595148D0A16210D0211
:1006E00003198D010E2B8D01A92A91227D288E01DF
:1006F0005121FF3903197F2BAF238E0A782B9201EA
:100700009A23920B802B0E2B0130B723E6238E0108
:100710002321FF3903198F2BAF238E0A882BC0307A
:10072000B7238E013A21FF390319992BAF238E0A83
:10073000922B252802309100900106080F38013EC7
:0E074000031D9D2B900BA22B910B9D2B0800EF
:02074E00851410
:10075000000085101E309800980BAC2B08009A0002
:100760001A0E8600A7231A088600A7230800851101
:100770009A001A0E8600A7231A088600A72385155B
:100780000800F0308605F5308505080085018601F2
:10079000E623851103308604A723E623033086046D
:1007A000A72303308604A72302308600A723023044
:1007B0008600A72308308600A7230C30AF2306301D
:1007C000AF230130AF23E6238515080005309900DB
:0C07D0009801980BE92B990BE92B08000D
:02400E00F13F80
:00000001FF
